:100000000C945D000C9485000C9485000C94850084
:100010000C9485000C9485000C9485000C9485004C
:100020000C9485000C9485000C9485000C94A4031A
:100030000C9485000C9485000C9485000C9485002C
:100040000C9460040C9485000C94D0040C94AA04C5
:100050000C9485000C9485000C9485000C9485000C
:100060000C9485000C9485000000000024002700FB
:100070002A0000000000250028002B0004040404CE
:100080000404040402020202020203030303030342
:10009000010204081020408001020408102001021F
:1000A00004081020000000080002010000030407FB
:1000B00000000000000000001D0511241FBECFEF4E
:1000C000D8E0DEBFCDBF11E0A0E0B1E0E2E4FEE0A9
:1000D00002C005900D92A037B107D9F722E0A0E742
:1000E000B1E001C01D92A834B207E1F710E0CDE500
:1000F000D0E004C02197FE010E941907CC35D1073A
:10010000C9F70E9459050C941F070C94000090E059
:10011000FC01EC55FF4F2491FC01E057FF4F349157
:10012000FC01E458FF4FE491EE23C9F0222339F09B
:10013000233001F1A8F4213019F1223029F1F0E047
:10014000EE0FFF1FEE58FF4FA591B4918FB7F894B3
:10015000EC91611126C030953E233C938FBF0895EA
:100160002730A9F02830C9F0243049F78091800069
:100170008F7D03C0809180008F7780938000DFCFD8
:1001800084B58F7784BDDBCF84B58F7DFBCF809125
:10019000B0008F778093B000D2CF8091B0008F7D78
:1001A000F9CF3E2BDACFCF92DF92EF92FF92CF932F
:1001B000DF93EC01603282E07807CCF5653B710596
:1001C00014F064EB70E0898128E830E0281B3109E5
:1001D00087FD3395220F331F220F331F6901330F21
:1001E000EE08FF088A8128E532E0281B310987FDE7
:1001F0003395220F331F220F331F032E000C440BA5
:10020000550B2C193D094E095F09DB0177FF02C030
:10021000B0E0A0E00E94D40624EB30E040E050E0E3
:100220000E94AA06C20ED31EE41EF51EB601E88186
:10023000EC3070F5298188E890E0821B910927FD58
:100240009395880F991F880F991F681779077CF07D
:100250002A8188E592E0821B910927FD9395880FFA
:10026000991F880F991F681779070CF4CB01029723
:10027000880F991F4FB7F8942E2F30E0F901EE0F39
:10028000FF1FE20FF31FE958FE4F928381834FBF98
:10029000DF91CF91FF90EF90DF90CF900895CF93B3
:1002A000DF93DC018C918C3008F06DC0CB01FB0139
:1002B000E057FF4F249184589F4FFC01849188237D
:1002C00099F090E0880F991FFC01E859FF4FC59104
:1002D000D491FC01EE58FF4F859194918FB7F8941B
:1002E000E881E22BE8838FBF8C91282F30E0F90161
:1002F000EE0FFF1FE20FF31FE958FE4F962F9F737B
:100300006081607C692B608311961C921197129614
:100310001C9212972CE0622F0E940D07829FB00161
:10032000112430E020E0AB01420F531FFA01EE0F21
:10033000FF1FE40FF51FE958FE4F908196FD16C090
:100340002F5F3F4F2C30310571F781110FC0109294
:10035000800082E0809381001092850010928400DA
:10036000B19A80916F00826080936F00EC918E2F24
:1003700090E0FC01EE0FFF1FE80FF91FE958FE4F58
:100380008081806480838C91DF91CF9108953FB705
:10039000F8948091710190917201A0917301B091D4
:1003A000740126B5A89B05C02F3F19F00196A11D29
:1003B000B11D3FBFBA2FA92F982F8827BC01CD01AF
:1003C000620F711D811D911D42E0660F771F881F0E
:1003D000991F4A95D1F708958F929F92AF92BF923D
:1003E000CF92DF92EF92FF920E94C7014B015C0116
:1003F00088ECC82ED12CE12CF12C0E94C701681981
:1004000079098A099B09683E734081059105A8F323
:1004100021E0C21AD108E108F10888EE880E83E0D5
:10042000981EA11CB11CC114D104E104F10429F7E8
:10043000FF90EF90DF90CF90BF90AF909F908F9004
:100440000895AF92BF92CF92DF92EF92FF920F93F7
:100450001F93CF93DF936C017B018B01040F151F5A
:10046000EB015E01AE18BF08C017D10759F06991C2
:10047000D601ED91FC910190F081E02DC601099526
:10048000892B79F7C501DF91CF911F910F91FF90D3
:10049000EF90DF90CF90BF90AF900895FC01538D07
:1004A000448D252F30E0842F90E0821B930B54174E
:1004B00010F0CF96089501970895FC01918D828DDB
:1004C000981761F0A28DAE0FBF2FB11D5D968C9174
:1004D000928D9F5F9F73928F90E008958FEF9FEFB3
:1004E0000895FC01918D828D981731F0828DE80F6F
:1004F000F11D858D90E008958FEF9FEF08952FB740
:10050000F89480919B0190919C01A0919D01B091E4
:100510009E012FBF8093A7019093A801A093A901EA
:10052000B093AA018FE991E00E94710297FF26C063
:100530002FB7F89480919B0190919C01A0919D010F
:10054000B0919E012FBF4091A7015091A8016091E9
:10055000A9017091AA01841B950BA60BB70B4091C2
:10056000A3015091A4016091A5017091A601841787
:100570009507A607B707B0F28FEF9FEF0895FC012C
:10058000918D228D892F90E0805C9F4F821B910975
:100590008F73992708958FE991E00E94BF0221E0AF
:1005A000892B09F420E0822F089580E090E0892BC8
:1005B00029F00E94CB0281110C9400000895FC01E7
:1005C000A48DA80FB92FB11DA35ABF4F2C91848DB4
:1005D00090E001968F739927848FA689B7892C9311
:1005E000A089B1898C91837080648C93938D848D64
:1005F000981306C00288F389E02D80818F7D808367
:100600000895EF92FF920F931F93CF93DF93EC0126
:1006100081E0888F9B8D8C8D98131AC0E889F989A9
:10062000808185FF15C09FB7F894EE89FF896083AC
:10063000E889F98980818370806480839FBF81E02D
:1006400090E0DF91CF911F910F91FF90EF9008956F
:10065000F62E0B8D10E00F5F1F4F0F731127E02E4A
:100660008C8D8E110CC00FB607FCFACFE889F98982
:10067000808185FFF5CFCE010E94DF02F1CFEB8DA7
:10068000EC0FFD2FF11DE35AFF4FF0829FB7F89456
:100690000B8FEA89FB8980818062CFCFCF93DF9374
:1006A000EC01888D8823B9F0AA89BB89E889F9898A
:1006B0008C9185FD03C0808186FD0DC00FB607FCBF
:1006C000F7CF8C9185FFF2CF808185FFEDCFCE01F2
:1006D0000E94DF02E9CFDF91CF910895CF93DF939E
:1006E000FC0101900020E9F73197AF01481B590B3D
:1006F000BC018FE991E00E942102EC0142E050E050
:1007000062E171E08FE991E00E9421028C0F9D1F50
:10071000DF91CF9108950F931F93CF93DF938B01B8
:10072000EA01BC018FE392E00E94D300B8018CE3A0
:1007300092E00E94D300CE010E946E03DF91CF9120
:100740001F910F910C94EC011F920F920FB60F9214
:1007500011242F933F934F935F936F937F938F93C6
:100760009F93AF93BF93CF93DF93EF93FF938091CA
:100770007501C0917601D0E087FF24C010928500FA
:1007800010928400809175018F5F80937501809134
:100790007501082E000C990B8C179D0724F480918D
:1007A00075018C30C4F1809184009091850004968D
:1007B00080349C4908F47AC080918400909185002F
:1007C000049676C080917501082E000C990B8C1749
:1007D0009D07C4F6E09175018E2FEE0F990BFC0179
:1007E000EE0FFF1FE80FF91FE958FE4F808186FFCB
:1007F000C9CFE09175018E2FEE0F990BFC01EE0F22
:10080000FF1FE80FF91FE958FE4F808160E08F73EA
:100810000E948700B7CF2091840030918500E0913D
:1008200075018E2FEE0F990BFC01EE0FFF1FE80FE5
:10083000F91FE958FE4F81819281820F931F909397
:10084000890080938800E09175018E2FEE0F990B3F
:10085000FC01EE0FFF1FE80FF91FE958FE4F8081E2
:1008600086FF11C0E09175018E2FEE0F990BFC01F0
:10087000EE0FFF1FE80FF91FE958FE4F808161E07E
:100880008F730E948700FF91EF91DF91CF91BF910D
:10089000AF919F918F917F916F915F914F913F9118
:1008A0002F910F900FBE0F901F90189580E49CE938
:1008B00090938900809388008FEF80937501E3CF38
:1008C0001F920F920FB60F9211242F933F938F9385
:1008D0009F93AF93BF9380919B0190919C01A091B6
:1008E0009D01B0919E013091700123E0230F2D37BF
:1008F00058F50196A11DB11D2093700180939B01B5
:1009000090939C01A0939D01B0939E0180917101F1
:1009100090917201A0917301B09174010196A11D93
:10092000B11D8093710190937201A0937301B093F4
:100930007401BF91AF919F918F913F912F910F9033
:100940000FBE0F901F90189526E8230F0296A11D49
:10095000B11DD2CF1F920F920FB60F9211242F9379
:100960003F934F935F936F937F938F939F93AF9337
:10097000BF93EF93FF938FE991E00E94DF02FF9115
:10098000EF91BF91AF919F918F917F916F915F9107
:100990004F913F912F910F900FBE0F901F90189580
:1009A0001F920F920FB60F9211242F938F939F9344
:1009B000EF93FF93E091AF01F091B0018081E0915E
:1009C000B501F091B60182FD1BC090818091B80104
:1009D0008F5F8F732091B901821741F0E091B801C8
:1009E000F0E0E156FE4F958F8093B801FF91EF91B3
:1009F0009F918F912F910F900FBE0F901F90189580
:100A00008081F4CFFC01909176019C3098F481E0D4
:100A1000890F809376019083892F90E0FC01EE0F7F
:100A2000FF1FE80FF91FE958FE4F88EB9BE0928308
:100A3000818308958FEF80830895EFE9F1E01382B9
:100A4000128288EE93E0A0E0B0E084839583A683D1
:100A5000B78384E091E09183808385EC90E0958773
:100A6000848784EC90E09787868780EC90E0918B78
:100A7000808B81EC90E0938B828B82EC90E0958B65
:100A8000848B86EC90E0978B868B118E128E138E62
:100A9000148E8FE392E00E9402058CE392E00E94A4
:100AA000020585E492E00E94020582E492E00C9443
:100AB0000205789484B5826084BD84B5816084BD6C
:100AC00085B5826085BD85B5816085BD80916E00EC
:100AD000816080936E00109281008091810082601D
:100AE000809381008091810081608093810080915A
:100AF00080008160809380008091B1008460809349
:100B0000B1008091B00081608093B00080917A0044
:100B1000846080937A0080917A00826080937A006A
:100B200080917A00816080937A0080917A00806859
:100B300080937A001092C100E091AF01F091B00172
:100B400082E08083E091AB01F091AC011082E091F2
:100B5000AD01F091AE018FEC80831092B701E0916E
:100B6000B301F091B40186E08083E091B101F0918E
:100B7000B201808180618083E091B101F091B20186
:100B8000808188608083E091B101F091B201808121
:100B900080688083E091B101F091B20180818F7D06
:100BA000808367E070E085E492E00E944F0168E096
:100BB00070E082E492E00E944F016AE570E085E413
:100BC00092E00E94D30060EA70E082E492E00E942A
:100BD000D30069E070E08FE392E00E944F016AE089
:100BE00070E08CE392E00E944F018FE991E00E9457
:100BF000BF0218161906CCF70E947F02FC0197FD70
:100C000059C08D32910521F0C0970A9708F04BC06A
:100C1000C12CD12C7601C0E0E130F105D9F0ED32E4
:100C2000F10509F445C0CF01C0970A9798F4AAE0EE
:100C3000B0E0A70196010E94C9066F01FF0FEE0800
:100C4000FF08C60ED71EE81EF91E80E3C81AD10899
:100C5000E108F1088FE991E00E945D020E947F02A5
:100C6000FC01C0970A97C0F2E130F105A9F2CC234C
:100C700041F0F094E094D094C094C11CD11CE11CCC
:100C8000F11CF6013197E830F10508F05EC0E55B34
:100C9000F94F0C9419075E0665066E0675067A060E
:100CA0007F068E0697068FE991E00E945D02A4CF31
:100CB000C1E0D0CFC12CD12C7601E3CF45E151E08A
:100CC00070E060E084EB90E006C045E251E064EB48
:100CD00070E090E080E00E948B0387CF44E351E016
:100CE0006AE570E08AE590E0F6CF49E351E064EB15
:100CF00070E0E8CF4EE351E070E060E0EACF6AE5F3
:100D000070E085E492E00E94D30060EA70E082E443
:100D100092E00E94D3000E94EC0167CF60EA70E08D
:100D200085E492E00E94D3006AE570E0F0CF45E1EF
:100D300051E064EB70E090E080E00E948B0360E59E
:100D40008FE991E00E94010350CF84E491E00E947A
:100D50006E034BCF052E97FB1EF400940E94C10634
:100D600057FD07D00E94DC0607FC03D04EF40C941C
:100D7000C10650954095309521953F4F4F4F5F4F9D
:100D8000089590958095709561957F4F8F4F9F4FF7
:100D900008950E94FE06A59F900DB49F900DA49FFC
:100DA000800D911D11240895B7FF0C94C9060E946F
:100DB000C906821B930B0895A1E21A2EAA1BBB1B26
:100DC000FD010DC0AA1FBB1FEE1FFF1FA217B30717
:100DD000E407F50720F0A21BB30BE40BF50B661F2D
:100DE000771F881F991F1A9469F7609570958095F1
:100DF00090959B01AC01BD01CF010895A29FB00168
:100E0000B39FC001A39F700D811D1124911DB29F3E
:100E1000700D811D1124911D0895991B79E004C066
:100E2000991F961708F0961B881F7A95C9F7809529
:100E30000895EE0FFF1F0590F491E02D0994F894AA
:020E4000FFCFE2
:100E420000000000010321024E024E03BF025D02B8
:100E520071020D0A00466F72776172643A2031386E
:100E620030206467004261636B776172643A2030BC
:100E72002064670053746F70004C65667400526999
:100E820067687400436F6D616E64C48320696E7617
:100E9200616C6964C4832E20416C65676520312CC6
:100EA20020322C20332C20342073617520352E0003
:00000001FF
